{
  "contractName": "Wallet",
  "abi": [
    {
      "inputs": [],
      "stateMutability": "nonpayable",
      "type": "constructor"
    },
    {
      "inputs": [],
      "name": "compraCount",
      "outputs": [
        {
          "internalType": "uint256",
          "name": "",
          "type": "uint256"
        }
      ],
      "stateMutability": "view",
      "type": "function"
    },
    {
      "inputs": [
        {
          "internalType": "uint256",
          "name": "",
          "type": "uint256"
        }
      ],
      "name": "compras",
      "outputs": [
        {
          "internalType": "uint256",
          "name": "id",
          "type": "uint256"
        },
        {
          "internalType": "address",
          "name": "comprador",
          "type": "address"
        },
        {
          "internalType": "int256",
          "name": "valor",
          "type": "int256"
        }
      ],
      "stateMutability": "view",
      "type": "function"
    },
    {
      "inputs": [],
      "name": "estado",
      "outputs": [
        {
          "internalType": "enum Wallet.Estado",
          "name": "",
          "type": "uint8"
        }
      ],
      "stateMutability": "view",
      "type": "function"
    },
    {
      "inputs": [
        {
          "internalType": "address",
          "name": "",
          "type": "address"
        }
      ],
      "name": "wallet",
      "outputs": [
        {
          "internalType": "int256",
          "name": "",
          "type": "int256"
        }
      ],
      "stateMutability": "view",
      "type": "function"
    },
    {
      "inputs": [
        {
          "internalType": "address",
          "name": "_comprador",
          "type": "address"
        },
        {
          "internalType": "int256",
          "name": "_valor",
          "type": "int256"
        },
        {
          "internalType": "string[]",
          "name": "_productos",
          "type": "string[]"
        }
      ],
      "name": "comprar",
      "outputs": [],
      "stateMutability": "nonpayable",
      "type": "function"
    },
    {
      "inputs": [
        {
          "internalType": "address",
          "name": "owner",
          "type": "address"
        },
        {
          "internalType": "int256",
          "name": "howMuch",
          "type": "int256"
        }
      ],
      "name": "put",
      "outputs": [],
      "stateMutability": "nonpayable",
      "type": "function"
    },
    {
      "inputs": [
        {
          "internalType": "address",
          "name": "owner",
          "type": "address"
        },
        {
          "internalType": "int256",
          "name": "howMuch",
          "type": "int256"
        }
      ],
      "name": "withdraw",
      "outputs": [],
      "stateMutability": "nonpayable",
      "type": "function"
    },
    {
      "inputs": [
        {
          "internalType": "address",
          "name": "owner",
          "type": "address"
        }
      ],
      "name": "balance",
      "outputs": [
        {
          "internalType": "int256",
          "name": "",
          "type": "int256"
        }
      ],
      "stateMutability": "view",
      "type": "function"
    },
    {
      "inputs": [
        {
          "internalType": "enum Wallet.Estado",
          "name": "_estado",
          "type": "uint8"
        }
      ],
      "name": "setEstado",
      "outputs": [],
      "stateMutability": "nonpayable",
      "type": "function"
    },
    {
      "inputs": [
        {
          "internalType": "uint256",
          "name": "_id",
          "type": "uint256"
        }
      ],
      "name": "consultarCompra",
      "outputs": [
        {
          "components": [
            {
              "internalType": "uint256",
              "name": "id",
              "type": "uint256"
            },
            {
              "internalType": "address",
              "name": "comprador",
              "type": "address"
            },
            {
              "internalType": "int256",
              "name": "valor",
              "type": "int256"
            },
            {
              "internalType": "string[]",
              "name": "productos",
              "type": "string[]"
            }
          ],
          "internalType": "struct Wallet.Compra",
          "name": "",
          "type": "tuple"
        }
      ],
      "stateMutability": "view",
      "type": "function"
    },
    {
      "inputs": [
        {
          "internalType": "address",
          "name": "owner",
          "type": "address"
        }
      ],
      "name": "promedio",
      "outputs": [
        {
          "internalType": "int256",
          "name": "",
          "type": "int256"
        }
      ],
      "stateMutability": "view",
      "type": "function"
    }
  ],
  "bytecode": "0x6080604052600060045534801561001557600080fd5b5033600360006101000a81548173ffffffffffffffffffffffffffffffffffffffff021916908373ffffffffffffffffffffffffffffffffffffffff160217905550611c8f806100666000396000f3fe608060405234801561001057600080fd5b50600436106100a95760003560e01c8063a20699c711610071578063a20699c714610168578063a56cc43914610198578063b129a94e146101c8578063dad7d486146101e4578063dfb6c73014610200578063e3d670d71461021c576100a9565b806314ff01c2146100ae57806322652517146100e057806346b4b438146100fe578063688e34671461012e5780637da7d3f11461014c575b600080fd5b6100c860048036038101906100c39190610ea0565b61024c565b6040516100d793929190610f36565b60405180910390f35b6100e8610296565b6040516100f59190610f6d565b60405180910390f35b61011860048036038101906101139190610ea0565b61029c565b6040516101259190611173565b60405180910390f35b6101366104f0565b604051610143919061120c565b60405180910390f35b6101666004803603810190610161919061127f565b610501565b005b610182600480360381019061017d91906112bf565b610624565b60405161018f91906112ec565b60405180910390f35b6101b260048036038101906101ad91906112bf565b6107e2565b6040516101bf91906112ec565b60405180910390f35b6101e260048036038101906101dd919061127f565b6107fa565b005b6101fe60048036038101906101f99190611522565b610a18565b005b61021a600480360381019061021591906115b6565b610be5565b005b610236600480360381019061023191906112bf565b610c11565b60405161024391906112ec565b60405180910390f35b60026020528060005260406000206000915090508060000154908060010160009054906101000a900473ffffffffffffffffffffffffffffffffffffffff16908060020154905083565b60045481565b6102a4610d3e565b6040518060400160405280600060028111156102c3576102c2611195565b5b60028111156102d5576102d4611195565b5b8152602001600160028111156102ee576102ed611195565b5b6002811115610300576102ff611195565b5b8152506000805b600281101561037b5760008054906101000a900460ff1660028111156103305761032f611195565b5b838260028110610343576103426115e3565b5b6020020151600281111561035a57610359611195565b5b03610368576001915061037b565b808061037390611641565b915050610307565b508061038657600080fd5b60026000858152602001908152602001600020604051806080016040529081600082015481526020016001820160009054906101000a900473ffffffffffffffffffffffffffffffffffffffff1673ffffffffffffffffffffffffffffffffffffffff1673ffffffffffffffffffffffffffffffffffffffff1681526020016002820154815260200160038201805480602002602001604051908101604052809291908181526020016000905b828210156104df578382906000526020600020018054610452906116b8565b80601f016020809104026020016040519081016040528092919081815260200182805461047e906116b8565b80156104cb5780601f106104a0576101008083540402835291602001916104cb565b820191906000526020600020905b8154815290600101906020018083116104ae57829003601f168201915b505050505081526020019060010190610433565b505050508152505092505050919050565b60008054906101000a900460ff1681565b8060008113610545576040517f08c379a000000000000000000000000000000000000000000000000000000000815260040161053c90611746565b60405180910390fd5b6000600160008573ffffffffffffffffffffffffffffffffffffffff1673ffffffffffffffffffffffffffffffffffffffff168152602001908152602001600020549050828112156105cc576040517f08c379a00000000000000000000000000000000000000000000000000000000081526004016105c3906117b2565b60405180910390fd5b82816105d891906117d2565b905080600160008673ffffffffffffffffffffffffffffffffffffffff1673ffffffffffffffffffffffffffffffffffffffff1681526020019081526020016000208190555050505050565b600060405180604001604052806000600281111561064557610644611195565b5b600281111561065757610656611195565b5b8152602001600160028111156106705761066f611195565b5b600281111561068257610681611195565b5b8152506000805b60028110156106fd5760008054906101000a900460ff1660028111156106b2576106b1611195565b5b8382600281106106c5576106c46115e3565b5b602002015160028111156106dc576106db611195565b5b036106ea57600191506106fd565b80806106f590611641565b915050610689565b508061070857600080fd5b6000806000600190505b60045481116107ca576002600082815260200190815260200160002060010160009054906101000a900473ffffffffffffffffffffffffffffffffffffffff1673ffffffffffffffffffffffffffffffffffffffff168773ffffffffffffffffffffffffffffffffffffffff16036107b757818061078f90611866565b9250506002600082815260200190815260200160002060020154836107b491906118ae565b92505b80806107c290611641565b915050610712565b5080826107d79190611971565b945050505050919050565b60016020528060005260406000206000915090505481565b806000811361083e576040517f08c379a000000000000000000000000000000000000000000000000000000000815260040161083590611746565b60405180910390fd5b60405180604001604052806000600281111561085d5761085c611195565b5b600281111561086f5761086e611195565b5b81526020016000600281111561088857610887611195565b5b600281111561089a57610899611195565b5b8152506000805b60028110156109155760008054906101000a900460ff1660028111156108ca576108c9611195565b5b8382600281106108dd576108dc6115e3565b5b602002015160028111156108f4576108f3611195565b5b036109025760019150610915565b808061090d90611641565b9150506108a1565b508061092057600080fd5b600360009054906101000a900473ffffffffffffffffffffffffffffffffffffffff1673ffffffffffffffffffffffffffffffffffffffff163373ffffffffffffffffffffffffffffffffffffffff161461097a57600080fd5b6000600160008773ffffffffffffffffffffffffffffffffffffffff1673ffffffffffffffffffffffffffffffffffffffff16815260200190815260200160002054905084816109ca91906118ae565b905080600160008873ffffffffffffffffffffffffffffffffffffffff1673ffffffffffffffffffffffffffffffffffffffff16815260200190815260200160002081905550505050505050565b604051806040016040528060006002811115610a3757610a36611195565b5b6002811115610a4957610a48611195565b5b8152602001600280811115610a6157610a60611195565b5b6002811115610a7357610a72611195565b5b8152506000805b6002811015610aee5760008054906101000a900460ff166002811115610aa357610aa2611195565b5b838260028110610ab657610ab56115e3565b5b60200201516002811115610acd57610acc611195565b5b03610adb5760019150610aee565b8080610ae690611641565b915050610a7a565b5080610af957600080fd5b610b038585610501565b604051806080016040528060045481526020018673ffffffffffffffffffffffffffffffffffffffff1681526020018581526020018481525060026000600460008154610b4f90611641565b91905081905581526020019081526020016000206000820151816000015560208201518160010160006101000a81548173ffffffffffffffffffffffffffffffffffffffff021916908373ffffffffffffffffffffffffffffffffffffffff160217905550604082015181600201556060820151816003019080519060200190610bda929190610d7c565b509050505050505050565b806000806101000a81548160ff02191690836002811115610c0957610c08611195565b5b021790555050565b6000604051806040016040528060006002811115610c3257610c31611195565b5b6002811115610c4457610c43611195565b5b815260200160016002811115610c5d57610c5c611195565b5b6002811115610c6f57610c6e611195565b5b8152506000805b6002811015610cea5760008054906101000a900460ff166002811115610c9f57610c9e611195565b5b838260028110610cb257610cb16115e3565b5b60200201516002811115610cc957610cc8611195565b5b03610cd75760019150610cea565b8080610ce290611641565b915050610c76565b5080610cf557600080fd5b600160008573ffffffffffffffffffffffffffffffffffffffff1673ffffffffffffffffffffffffffffffffffffffff1681526020019081526020016000205492505050919050565b604051806080016040528060008152602001600073ffffffffffffffffffffffffffffffffffffffff16815260200160008152602001606081525090565b828054828255906000526020600020908101928215610dc4579160200282015b82811115610dc3578251829081610db39190611b87565b5091602001919060010190610d9c565b5b509050610dd19190610dd5565b5090565b5b80821115610df55760008181610dec9190610df9565b50600101610dd6565b5090565b508054610e05906116b8565b6000825580601f10610e175750610e36565b601f016020900490600052602060002090810190610e359190610e39565b5b50565b5b80821115610e52576000816000905550600101610e3a565b5090565b6000604051905090565b600080fd5b600080fd5b6000819050919050565b610e7d81610e6a565b8114610e8857600080fd5b50565b600081359050610e9a81610e74565b92915050565b600060208284031215610eb657610eb5610e60565b5b6000610ec484828501610e8b565b91505092915050565b610ed681610e6a565b82525050565b600073ffffffffffffffffffffffffffffffffffffffff82169050919050565b6000610f0782610edc565b9050919050565b610f1781610efc565b82525050565b6000819050919050565b610f3081610f1d565b82525050565b6000606082019050610f4b6000830186610ecd565b610f586020830185610f0e565b610f656040830184610f27565b949350505050565b6000602082019050610f826000830184610ecd565b92915050565b610f9181610e6a565b82525050565b610fa081610efc565b82525050565b610faf81610f1d565b82525050565b600081519050919050565b600082825260208201905092915050565b6000819050602082019050919050565b600081519050919050565b600082825260208201905092915050565b60005b8381101561101b578082015181840152602081019050611000565b8381111561102a576000848401525b50505050565b6000601f19601f8301169050919050565b600061104c82610fe1565b6110568185610fec565b9350611066818560208601610ffd565b61106f81611030565b840191505092915050565b60006110868383611041565b905092915050565b6000602082019050919050565b60006110a682610fb5565b6110b08185610fc0565b9350836020820285016110c285610fd1565b8060005b858110156110fe57848403895281516110df858261107a565b94506110ea8361108e565b925060208a019950506001810190506110c6565b50829750879550505050505092915050565b60006080830160008301516111286000860182610f88565b50602083015161113b6020860182610f97565b50604083015161114e6040860182610fa6565b5060608301518482036060860152611166828261109b565b9150508091505092915050565b6000602082019050818103600083015261118d8184611110565b905092915050565b7f4e487b7100000000000000000000000000000000000000000000000000000000600052602160045260246000fd5b600381106111d5576111d4611195565b5b50565b60008190506111e6826111c4565b919050565b60006111f6826111d8565b9050919050565b611206816111eb565b82525050565b600060208201905061122160008301846111fd565b92915050565b61123081610efc565b811461123b57600080fd5b50565b60008135905061124d81611227565b92915050565b61125c81610f1d565b811461126757600080fd5b50565b60008135905061127981611253565b92915050565b6000806040838503121561129657611295610e60565b5b60006112a48582860161123e565b92505060206112b58582860161126a565b9150509250929050565b6000602082840312156112d5576112d4610e60565b5b60006112e38482850161123e565b91505092915050565b60006020820190506113016000830184610f27565b92915050565b600080fd5b7f4e487b7100000000000000000000000000000000000000000000000000000000600052604160045260246000fd5b61134482611030565b810181811067ffffffffffffffff821117156113635761136261130c565b5b80604052505050565b6000611376610e56565b9050611382828261133b565b919050565b600067ffffffffffffffff8211156113a2576113a161130c565b5b602082029050602081019050919050565b600080fd5b600080fd5b600067ffffffffffffffff8211156113d8576113d761130c565b5b6113e182611030565b9050602081019050919050565b82818337600083830152505050565b600061141061140b846113bd565b61136c565b90508281526020810184848401111561142c5761142b6113b8565b5b6114378482856113ee565b509392505050565b600082601f83011261145457611453611307565b5b81356114648482602086016113fd565b91505092915050565b600061148061147b84611387565b61136c565b905080838252602082019050602084028301858111156114a3576114a26113b3565b5b835b818110156114ea57803567ffffffffffffffff8111156114c8576114c7611307565b5b8086016114d5898261143f565b855260208501945050506020810190506114a5565b5050509392505050565b600082601f83011261150957611508611307565b5b813561151984826020860161146d565b91505092915050565b60008060006060848603121561153b5761153a610e60565b5b60006115498682870161123e565b935050602061155a8682870161126a565b925050604084013567ffffffffffffffff81111561157b5761157a610e65565b5b611587868287016114f4565b9150509250925092565b6003811061159e57600080fd5b50565b6000813590506115b081611591565b92915050565b6000602082840312156115cc576115cb610e60565b5b60006115da848285016115a1565b91505092915050565b7f4e487b7100000000000000000000000000000000000000000000000000000000600052603260045260246000fd5b7f4e487b7100000000000000000000000000000000000000000000000000000000600052601160045260246000fd5b600061164c82610e6a565b91507fffffffffffffffffffffffffffffffffffffffffffffffffffffffffffffffff820361167e5761167d611612565b5b600182019050919050565b7f4e487b7100000000000000000000000000000000000000000000000000000000600052602260045260246000fd5b600060028204905060018216806116d057607f821691505b6020821081036116e3576116e2611689565b5b50919050565b600082825260208201905092915050565b7f56616c7565206d75737420626520706f73697469766500000000000000000000600082015250565b60006117306016836116e9565b915061173b826116fa565b602082019050919050565b6000602082019050818103600083015261175f81611723565b9050919050565b7f4e6f7420656e6f75676820636173682c20537472616e67657221000000000000600082015250565b600061179c601a836116e9565b91506117a782611766565b602082019050919050565b600060208201905081810360008301526117cb8161178f565b9050919050565b60006117dd82610f1d565b91506117e883610f1d565b9250827f80000000000000000000000000000000000000000000000000000000000000000182126000841215161561182357611822611612565b5b827f7fffffffffffffffffffffffffffffffffffffffffffffffffffffffffffffff01821360008412161561185b5761185a611612565b5b828203905092915050565b600061187182610f1d565b91507f7fffffffffffffffffffffffffffffffffffffffffffffffffffffffffffffff82036118a3576118a2611612565b5b600182019050919050565b60006118b982610f1d565b91506118c483610f1d565b9250817f7fffffffffffffffffffffffffffffffffffffffffffffffffffffffffffffff038313600083121516156118ff576118fe611612565b5b817f800000000000000000000000000000000000000000000000000000000000000003831260008312161561193757611936611612565b5b828201905092915050565b7f4e487b7100000000000000000000000000000000000000000000000000000000600052601260045260246000fd5b600061197c82610f1d565b915061198783610f1d565b92508261199757611996611942565b5b600160000383147f8000000000000000000000000000000000000000000000000000000000000000831416156119d0576119cf611612565b5b828205905092915050565b60008190508160005260206000209050919050565b60006020601f8301049050919050565b600082821b905092915050565b600060088302611a3d7fffffffffffffffffffffffffffffffffffffffffffffffffffffffffffffffff82611a00565b611a478683611a00565b95508019841693508086168417925050509392505050565b6000819050919050565b6000611a84611a7f611a7a84610e6a565b611a5f565b610e6a565b9050919050565b6000819050919050565b611a9e83611a69565b611ab2611aaa82611a8b565b848454611a0d565b825550505050565b600090565b611ac7611aba565b611ad2818484611a95565b505050565b5b81811015611af657611aeb600082611abf565b600181019050611ad8565b5050565b601f821115611b3b57611b0c816119db565b611b15846119f0565b81016020851015611b24578190505b611b38611b30856119f0565b830182611ad7565b50505b505050565b600082821c905092915050565b6000611b5e60001984600802611b40565b1980831691505092915050565b6000611b778383611b4d565b9150826002028217905092915050565b611b9082610fe1565b67ffffffffffffffff811115611ba957611ba861130c565b5b611bb382546116b8565b611bbe828285611afa565b600060209050601f831160018114611bf15760008415611bdf578287015190505b611be98582611b6b565b865550611c51565b601f198416611bff866119db565b60005b82811015611c2757848901518255600182019150602085019450602081019050611c02565b86831015611c445784890151611c40601f891682611b4d565b8355505b6001600288020188555050505b50505050505056fea26469706673582212207b7c6194a8c9c1be2380455b7cd7e8ed98ba03c6ddd5ae35728668fcf9307e2b64736f6c634300080f0033",
  "immutableReferences": {},
  "source": "pragma solidity >=0.7.0 <0.9.0;\r\n\r\n//SPDX-License-Identifier: MIT\r\n//pragma solidity ^0.5.1;\r\n//pragma experimental ABIEncoderV2;\r\n\r\ncontract Wallet {\r\n\r\n    enum Estado {\r\n        Activo,\r\n        Lectura,\r\n        Bootstrap\r\n    }\r\n\r\n    Estado public estado;\r\n    // mapa\r\n    //   clave => una direccin de Ethereum que representa una persona fsica\r\n    //   valor => $$$ que tiene\r\n    mapping(address => int256) public wallet;\r\n\r\n    mapping(uint => Compra) public compras;\r\n\r\n    struct Compra {\r\n        uint id;\r\n        address comprador;\r\n        int256 valor;\r\n        string[] productos;\r\n    }\r\n\r\n    address duenio;\r\n\r\n    uint256 public compraCount = 0;\r\n\r\n    // validacin general para poner o sacar\r\n    modifier positive(int256 value) {\r\n        require(value > 0, \"Value must be positive\");\r\n        _;\r\n    }\r\n\r\n    modifier onlyOwner() {\r\n        require(msg.sender == duenio);\r\n        _;\r\n    }\r\n\r\n    constructor() {\r\n        duenio = msg.sender;\r\n    }\r\n\r\n    function comprar(address _comprador, int256 _valor, string[] memory _productos) public estadosPermitidos([Estado.Activo, Estado.Bootstrap]) {\r\n        withdraw(_comprador, _valor);\r\n\r\n        compras[++compraCount] = Compra(compraCount, _comprador, _valor, _productos);\r\n        \r\n    }\r\n\r\n    // poner plata en la billetera\r\n    function put(address owner, int256 howMuch) public positive(howMuch) estadosPermitidos([Estado.Activo, Estado.Activo]) onlyOwner {\r\n        int256 money = wallet[owner]; // por defecto es 0\r\n        money = money + howMuch;\r\n        wallet[owner] = money;\r\n    }\r\n\r\n    // sacar plata de la billetera\r\n    function withdraw(address owner, int256 howMuch) public positive(howMuch) {\r\n        int256 money = wallet[owner]; // por defecto es 0\r\n        require(money >= howMuch, \"Not enough cash, Stranger!\");\r\n        money = money - howMuch;\r\n        wallet[owner] = money;\r\n    }\r\n\r\n    function balance(address owner) public estadosPermitidos([Estado.Activo, Estado.Lectura]) view returns (int256)  {\r\n        return wallet[owner];\r\n    }\r\n\r\n    function setEstado(Estado _estado) public {\r\n        estado = _estado;\r\n    }   \r\n\r\n    function consultarCompra(uint _id) public estadosPermitidos([Estado.Activo, Estado.Lectura]) view returns (Compra memory) {\r\n        return compras[_id];\r\n    }\r\n\r\n    function promedio(address owner) public estadosPermitidos([Estado.Activo, Estado.Lectura]) view returns (int256) {\r\n        int256 acumulador;\r\n        int count;\r\n        for(uint i = 1; i <= compraCount; i++) {\r\n            if(owner == compras[i].comprador){\r\n                count++;\r\n                acumulador += compras[i].valor;\r\n            }\r\n        }\r\n        return acumulador / count;\r\n    }\r\n\r\n    // FIXME: Buscar solucion alternativa (ver funcion put)\r\n    modifier estadosPermitidos(Estado[2] memory _estados) {\r\n        bool passed = false;\r\n        for (uint i; i < _estados.length; i++) {\r\n            if (_estados[i] == estado) {\r\n                passed = true;\r\n                break;\r\n            }\r\n        }\r\n        require(passed);\r\n        _;\r\n    }\r\n\r\n\r\n}",
  "sourcePath": "D:\\Universidad\\PHM\\frontend-difficult\\ethereum\\truffle\\contracts\\Wallet.sol",
  "compiler": {
    "name": "solc",
    "version": "0.8.15+commit.e14f2714.Emscripten.clang"
  },
  "schemaVersion": "3.4.7",
  "updatedAt": "2022-06-20T22:12:43.768Z",
  "devdoc": {
    "kind": "dev",
    "methods": {},
    "version": 1
  },
  "userdoc": {
    "kind": "user",
    "methods": {},
    "version": 1
  }
}